{
  "_format": "hh-sol-artifact-1",
  "contractName": "ElectionFact",
  "sourceName": "contracts/Election.sol",
  "abi": [
    {
      "inputs": [
        {
          "internalType": "string",
          "name": "email",
          "type": "string"
        },
        {
          "internalType": "string",
          "name": "election_name",
          "type": "string"
        },
        {
          "internalType": "string",
          "name": "election_description",
          "type": "string"
        }
      ],
      "name": "createElection",
      "outputs": [],
      "stateMutability": "nonpayable",
      "type": "function"
    },
    {
      "inputs": [
        {
          "internalType": "string",
          "name": "email",
          "type": "string"
        }
      ],
      "name": "getDeployedElection",
      "outputs": [
        {
          "internalType": "address",
          "name": "",
          "type": "address"
        },
        {
          "internalType": "string",
          "name": "",
          "type": "string"
        },
        {
          "internalType": "string",
          "name": "",
          "type": "string"
        }
      ],
      "stateMutability": "view",
      "type": "function"
    }
  ],
  "bytecode": "0x608060405234801561001057600080fd5b50612f29806100206000396000f3fe60806040523480156200001157600080fd5b50600436106200003a5760003560e01c806337f46549146200003f5780634a6cf3a91462000077575b600080fd5b6200005d6004803603810190620000579190620005c1565b62000097565b6040516200006e93929190620006e0565b60405180910390f35b6200009560048036038101906200008f91906200072b565b6200032e565b005b600060608060008085604051620000af919062000826565b908152602001604051809103902060000160009054906101000a900473ffffffffffffffffffffffffffffffffffffffff169050600073ffffffffffffffffffffffffffffffffffffffff168173ffffffffffffffffffffffffffffffffffffffff16036200016d576000604051806020016040528060008152506040518060400160405280601281526020017f43726561746520616e20656c656374696f6e00000000000000000000000000008152509350935093505062000327565b6000856040516200017f919062000826565b908152602001604051809103902060000160009054906101000a900473ffffffffffffffffffffffffffffffffffffffff16600086604051620001c3919062000826565b9081526020016040518091039020600101600087604051620001e6919062000826565b908152602001604051809103902060020181805462000205906200086e565b80601f016020809104026020016040519081016040528092919081815260200182805462000233906200086e565b8015620002845780601f10620002585761010080835404028352916020019162000284565b820191906000526020600020905b8154815290600101906020018083116200026657829003601f168201915b5050505050915080805462000299906200086e565b80601f0160208091040260200160405190810160405280929190818152602001828054620002c7906200086e565b8015620003185780601f10620002ec5761010080835404028352916020019162000318565b820191906000526020600020905b815481529060010190602001808311620002fa57829003601f168201915b50505050509050935093509350505b9193909250565b600033838360405162000341906200043d565b6200034f93929190620006e0565b604051809103906000f0801580156200036c573d6000803e3d6000fd5b5090508060008560405162000382919062000826565b908152602001604051809103902060000160006101000a81548173ffffffffffffffffffffffffffffffffffffffff021916908373ffffffffffffffffffffffffffffffffffffffff16021790555082600085604051620003e4919062000826565b9081526020016040518091039020600101908162000403919062000a7f565b508160008560405162000417919062000826565b9081526020016040518091039020600201908162000436919062000a7f565b5050505050565b61238d8062000b6783390190565b6000604051905090565b600080fd5b600080fd5b600080fd5b600080fd5b6000601f19601f8301169050919050565b7f4e487b7100000000000000000000000000000000000000000000000000000000600052604160045260246000fd5b620004b48262000469565b810181811067ffffffffffffffff82111715620004d657620004d56200047a565b5b80604052505050565b6000620004eb6200044b565b9050620004f98282620004a9565b919050565b600067ffffffffffffffff8211156200051c576200051b6200047a565b5b620005278262000469565b9050602081019050919050565b82818337600083830152505050565b60006200055a6200055484620004fe565b620004df565b90508281526020810184848401111562000579576200057862000464565b5b6200058684828562000534565b509392505050565b600082601f830112620005a657620005a56200045f565b5b8135620005b884826020860162000543565b91505092915050565b600060208284031215620005da57620005d962000455565b5b600082013567ffffffffffffffff811115620005fb57620005fa6200045a565b5b62000609848285016200058e565b91505092915050565b600073ffffffffffffffffffffffffffffffffffffffff82169050919050565b60006200063f8262000612565b9050919050565b620006518162000632565b82525050565b600081519050919050565b600082825260208201905092915050565b60005b838110156200069357808201518184015260208101905062000676565b60008484015250505050565b6000620006ac8262000657565b620006b8818562000662565b9350620006ca81856020860162000673565b620006d58162000469565b840191505092915050565b6000606082019050620006f7600083018662000646565b81810360208301526200070b81856200069f565b905081810360408301526200072181846200069f565b9050949350505050565b60008060006060848603121562000747576200074662000455565b5b600084013567ffffffffffffffff8111156200076857620007676200045a565b5b62000776868287016200058e565b935050602084013567ffffffffffffffff8111156200079a57620007996200045a565b5b620007a8868287016200058e565b925050604084013567ffffffffffffffff811115620007cc57620007cb6200045a565b5b620007da868287016200058e565b9150509250925092565b600081905092915050565b6000620007fc8262000657565b620008088185620007e4565b93506200081a81856020860162000673565b80840191505092915050565b6000620008348284620007ef565b915081905092915050565b7f4e487b7100000000000000000000000000000000000000000000000000000000600052602260045260246000fd5b600060028204905060018216806200088757607f821691505b6020821081036200089d576200089c6200083f565b5b50919050565b60008190508160005260206000209050919050565b60006020601f8301049050919050565b600082821b905092915050565b600060088302620009077fffffffffffffffffffffffffffffffffffffffffffffffffffffffffffffffff82620008c8565b620009138683620008c8565b95508019841693508086168417925050509392505050565b6000819050919050565b6000819050919050565b6000620009606200095a62000954846200092b565b62000935565b6200092b565b9050919050565b6000819050919050565b6200097c836200093f565b620009946200098b8262000967565b848454620008d5565b825550505050565b600090565b620009ab6200099c565b620009b881848462000971565b505050565b5b81811015620009e057620009d4600082620009a1565b600181019050620009be565b5050565b601f82111562000a2f57620009f981620008a3565b62000a0484620008b8565b8101602085101562000a14578190505b62000a2c62000a2385620008b8565b830182620009bd565b50505b505050565b600082821c905092915050565b600062000a546000198460080262000a34565b1980831691505092915050565b600062000a6f838362000a41565b9150826002028217905092915050565b62000a8a8262000657565b67ffffffffffffffff81111562000aa65762000aa56200047a565b5b62000ab282546200086e565b62000abf828285620009e4565b600060209050601f83116001811462000af7576000841562000ae2578287015190505b62000aee858262000a61565b86555062000b5e565b601f19841662000b0786620008a3565b60005b8281101562000b315784890151825560018201915060208501945060208101905062000b0a565b8683101562000b51578489015162000b4d601f89168262000a41565b8355505b6001600288020188555050505b50505050505056fe60806040523480156200001157600080fd5b506040516200238d3803806200238d8339818101604052810190620000379190620002b7565b826000806101000a81548173ffffffffffffffffffffffffffffffffffffffff021916908373ffffffffffffffffffffffffffffffffffffffff16021790555081600190816200008891906200059c565b5080600290816200009a91906200059c565b506001600360006101000a81548160ff02191690831515021790555050505062000683565b6000604051905090565b600080fd5b600080fd5b600073ffffffffffffffffffffffffffffffffffffffff82169050919050565b60006200010082620000d3565b9050919050565b6200011281620000f3565b81146200011e57600080fd5b50565b600081519050620001328162000107565b92915050565b600080fd5b600080fd5b6000601f19601f8301169050919050565b7f4e487b7100000000000000000000000000000000000000000000000000000000600052604160045260246000fd5b6200018d8262000142565b810181811067ffffffffffffffff82111715620001af57620001ae62000153565b5b80604052505050565b6000620001c4620000bf565b9050620001d2828262000182565b919050565b600067ffffffffffffffff821115620001f557620001f462000153565b5b620002008262000142565b9050602081019050919050565b60005b838110156200022d57808201518184015260208101905062000210565b60008484015250505050565b6000620002506200024a84620001d7565b620001b8565b9050828152602081018484840111156200026f576200026e6200013d565b5b6200027c8482856200020d565b509392505050565b600082601f8301126200029c576200029b62000138565b5b8151620002ae84826020860162000239565b91505092915050565b600080600060608486031215620002d357620002d2620000c9565b5b6000620002e38682870162000121565b935050602084015167ffffffffffffffff811115620003075762000306620000ce565b5b620003158682870162000284565b925050604084015167ffffffffffffffff811115620003395762000338620000ce565b5b620003478682870162000284565b9150509250925092565b600081519050919050565b7f4e487b7100000000000000000000000000000000000000000000000000000000600052602260045260246000fd5b60006002820490506001821680620003a457607f821691505b602082108103620003ba57620003b96200035c565b5b50919050565b60008190508160005260206000209050919050565b60006020601f8301049050919050565b600082821b905092915050565b600060088302620004247fffffffffffffffffffffffffffffffffffffffffffffffffffffffffffffffff82620003e5565b620004308683620003e5565b95508019841693508086168417925050509392505050565b6000819050919050565b6000819050919050565b60006200047d62000477620004718462000448565b62000452565b62000448565b9050919050565b6000819050919050565b62000499836200045c565b620004b1620004a88262000484565b848454620003f2565b825550505050565b600090565b620004c8620004b9565b620004d58184846200048e565b505050565b5b81811015620004fd57620004f1600082620004be565b600181019050620004db565b5050565b601f8211156200054c576200051681620003c0565b6200052184620003d5565b8101602085101562000531578190505b620005496200054085620003d5565b830182620004da565b50505b505050565b600082821c905092915050565b6000620005716000198460080262000551565b1980831691505092915050565b60006200058c83836200055e565b9150826002028217905092915050565b620005a78262000351565b67ffffffffffffffff811115620005c357620005c262000153565b5b620005cf82546200038b565b620005dc82828562000501565b600060209050601f831160018114620006145760008415620005ff578287015190505b6200060b85826200057e565b8655506200067b565b601f1984166200062486620003c0565b60005b828110156200064e5784890151825560018201915060208501945060208101905062000627565b868310156200066e57848901516200066a601f8916826200055e565b8355505b6001600288020188555050505b505050505050565b611cfa80620006936000396000f3fe608060405234801561001057600080fd5b506004361061010b5760003560e01c80635216509a116100a257806382e15fcd1161007157806382e15fcd146102ae5780638e7ea5b2146102cc578063e8685ba1146102ec578063ed35a5da1461030a578063ed836bc3146103285761010b565b80635216509a1461023857806359f78468146102565780635df813301461026057806365fc783c146102905761010b565b80633477ee2e116100de5780633477ee2e1461018457806335b8e820146101b75780633f40c733146101ea5780634cbe32b81461021a5761010b565b8063044d5a97146101105780630ed128581461012e578063200d2ed21461014a5780632410847514610168575b600080fd5b610118610347565b604051610125919061114e565b60405180910390f35b6101486004803603810190610143919061139f565b6103d5565b005b6101526105f4565b60405161015f9190611491565b60405180910390f35b610182600480360381019061017d91906114e2565b610607565b005b61019e6004803603810190610199919061153e565b61073e565b6040516101ae949392919061156b565b60405180910390f35b6101d160048036038101906101cc919061153e565b61098e565b6040516101e1949392919061156b565b60405180910390f35b61020460048036038101906101ff91906115cc565b610c2b565b6040516102119190611491565b60405180910390f35b610222610c61565b60405161022f9190611624565b60405180910390f35b610240610c67565b60405161024d9190611624565b60405180910390f35b61025e610c6d565b005b61027a6004803603810190610275919061153e565b610d18565b6040516102879190611624565b60405180910390f35b610298610d30565b6040516102a59190611624565b60405180910390f35b6102b6610d3a565b6040516102c39190611680565b60405180910390f35b6102d4610d5e565b6040516102e39392919061169b565b60405180910390f35b6102f4610eff565b6040516103019190611624565b60405180910390f35b610312610f09565b60405161031f919061114e565b60405180910390f35b610330610f97565b60405161033e9291906116e0565b60405180910390f35b6002805461035490611746565b80601f016020809104026020016040519081016040528092919081815260200182805461038090611746565b80156103cd5780601f106103a2576101008083540402835291602001916103cd565b820191906000526020600020905b8154815290600101906020018083116103b057829003601f168201915b505050505081565b60008054906101000a900473ffffffffffffffffffffffffffffffffffffffff1673ffffffffffffffffffffffffffffffffffffffff163373ffffffffffffffffffffffffffffffffffffffff1614610463576040517f08c379a000000000000000000000000000000000000000000000000000000000815260040161045a906117c3565b60405180910390fd5b82518451148015610475575081518451145b8015610482575080518451145b6104c1576040517f08c379a00000000000000000000000000000000000000000000000000000000081526004016104b890611855565b60405180910390fd5b60005b84518110156105ed576000600760008154809291906104e2906118a4565b9190505590506040518060800160405280878481518110610506576105056118ec565b5b60200260200101518152602001868481518110610526576105256118ec565b5b60200260200101518152602001858481518110610546576105456118ec565b5b60200260200101518152602001848481518110610566576105656118ec565b5b60200260200101518152506004600083815260200190815260200160002060008201518160000190816105999190611ac7565b5060208201518160010190816105af9190611ac7565b5060408201518160020190816105c59190611ac7565b5060608201518160030190816105db9190611ac7565b509050505080806001019150506104c4565b5050505050565b600360009054906101000a900460ff1681565b6005816040516106179190611bd5565b908152602001604051809103902060009054906101000a900460ff1615610673576040517f08c379a000000000000000000000000000000000000000000000000000000000815260040161066a90611c38565b60405180910390fd5b600360009054906101000a900460ff166106c2576040517f08c379a00000000000000000000000000000000000000000000000000000000081526004016106b990611ca4565b60405180910390fd5b60016005826040516106d49190611bd5565b908152602001604051809103902060006101000a81548160ff0219169083151502179055506008600081548092919061070c906118a4565b9190505550600660008381526020019081526020016000206000815480929190610735906118a4565b91905055505050565b600460205280600052604060002060009150905080600001805461076190611746565b80601f016020809104026020016040519081016040528092919081815260200182805461078d90611746565b80156107da5780601f106107af576101008083540402835291602001916107da565b820191906000526020600020905b8154815290600101906020018083116107bd57829003601f168201915b5050505050908060010180546107ef90611746565b80601f016020809104026020016040519081016040528092919081815260200182805461081b90611746565b80156108685780601f1061083d57610100808354040283529160200191610868565b820191906000526020600020905b81548152906001019060200180831161084b57829003601f168201915b50505050509080600201805461087d90611746565b80601f01602080910402602001604051908101604052809291908181526020018280546108a990611746565b80156108f65780601f106108cb576101008083540402835291602001916108f6565b820191906000526020600020905b8154815290600101906020018083116108d957829003601f168201915b50505050509080600301805461090b90611746565b80601f016020809104026020016040519081016040528092919081815260200182805461093790611746565b80156109845780601f1061095957610100808354040283529160200191610984565b820191906000526020600020905b81548152906001019060200180831161096757829003601f168201915b5050505050905084565b606080606080600460008681526020019081526020016000206000016004600087815260200190815260200160002060010160046000888152602001908152602001600020600201600460008981526020019081526020016000206003018380546109f890611746565b80601f0160208091040260200160405190810160405280929190818152602001828054610a2490611746565b8015610a715780601f10610a4657610100808354040283529160200191610a71565b820191906000526020600020905b815481529060010190602001808311610a5457829003601f168201915b50505050509350828054610a8490611746565b80601f0160208091040260200160405190810160405280929190818152602001828054610ab090611746565b8015610afd5780601f10610ad257610100808354040283529160200191610afd565b820191906000526020600020905b815481529060010190602001808311610ae057829003601f168201915b50505050509250818054610b1090611746565b80601f0160208091040260200160405190810160405280929190818152602001828054610b3c90611746565b8015610b895780601f10610b5e57610100808354040283529160200191610b89565b820191906000526020600020905b815481529060010190602001808311610b6c57829003601f168201915b50505050509150808054610b9c90611746565b80601f0160208091040260200160405190810160405280929190818152602001828054610bc890611746565b8015610c155780601f10610bea57610100808354040283529160200191610c15565b820191906000526020600020905b815481529060010190602001808311610bf857829003601f168201915b5050505050905093509350935093509193509193565b6005818051602081018201805184825260208301602085012081835280955050505050506000915054906101000a900460ff1681565b60085481565b60075481565b60008054906101000a900473ffffffffffffffffffffffffffffffffffffffff1673ffffffffffffffffffffffffffffffffffffffff163373ffffffffffffffffffffffffffffffffffffffff1614610cfb576040517f08c379a0000000000000000000000000000000000000000000000000000000008152600401610cf2906117c3565b60405180910390fd5b6000600360006101000a81548160ff021916908315150217905550565b60066020528060005260406000206000915090505481565b6000600854905090565b60008054906101000a900473ffffffffffffffffffffffffffffffffffffffff1681565b6060600060606000806000805b600754811015610ddf578360066000838152602001908152602001600020541115610db2576006600082815260200190815260200160002054935080925060009150610dd2565b83600660008381526020019081526020016000205403610dd157600191505b5b8080600101915050610d6b565b508015610e3d57600060405180602001604052806000815250906040518060400160405280600b81526020017f4974277320612074696521000000000000000000000000000000000000000000815250955095509550505050610efa565b6004600083815260200190815260200160002060000182818054610e6090611746565b80601f0160208091040260200160405190810160405280929190818152602001828054610e8c90611746565b8015610ed95780601f10610eae57610100808354040283529160200191610ed9565b820191906000526020600020905b815481529060010190602001808311610ebc57829003601f168201915b50505050509150604051806020016040528060008152509550955095505050505b909192565b6000600754905090565b60018054610f1690611746565b80601f0160208091040260200160405190810160405280929190818152602001828054610f4290611746565b8015610f8f5780601f10610f6457610100808354040283529160200191610f8f565b820191906000526020600020905b815481529060010190602001808311610f7257829003601f168201915b505050505081565b60608060016002818054610faa90611746565b80601f0160208091040260200160405190810160405280929190818152602001828054610fd690611746565b80156110235780601f10610ff857610100808354040283529160200191611023565b820191906000526020600020905b81548152906001019060200180831161100657829003601f168201915b5050505050915080805461103690611746565b80601f016020809104026020016040519081016040528092919081815260200182805461106290611746565b80156110af5780601f10611084576101008083540402835291602001916110af565b820191906000526020600020905b81548152906001019060200180831161109257829003601f168201915b50505050509050915091509091565b600081519050919050565b600082825260208201905092915050565b60005b838110156110f85780820151818401526020810190506110dd565b60008484015250505050565b6000601f19601f8301169050919050565b6000611120826110be565b61112a81856110c9565b935061113a8185602086016110da565b61114381611104565b840191505092915050565b600060208201905081810360008301526111688184611115565b905092915050565b6000604051905090565b600080fd5b600080fd5b600080fd5b7f4e487b7100000000000000000000000000000000000000000000000000000000600052604160045260246000fd5b6111c182611104565b810181811067ffffffffffffffff821117156111e0576111df611189565b5b80604052505050565b60006111f3611170565b90506111ff82826111b8565b919050565b600067ffffffffffffffff82111561121f5761121e611189565b5b602082029050602081019050919050565b600080fd5b600080fd5b600067ffffffffffffffff82111561125557611254611189565b5b61125e82611104565b9050602081019050919050565b82818337600083830152505050565b600061128d6112888461123a565b6111e9565b9050828152602081018484840111156112a9576112a8611235565b5b6112b484828561126b565b509392505050565b600082601f8301126112d1576112d0611184565b5b81356112e184826020860161127a565b91505092915050565b60006112fd6112f884611204565b6111e9565b905080838252602082019050602084028301858111156113205761131f611230565b5b835b8181101561136757803567ffffffffffffffff81111561134557611344611184565b5b80860161135289826112bc565b85526020850194505050602081019050611322565b5050509392505050565b600082601f83011261138657611385611184565b5b81356113968482602086016112ea565b91505092915050565b600080600080608085870312156113b9576113b861117a565b5b600085013567ffffffffffffffff8111156113d7576113d661117f565b5b6113e387828801611371565b945050602085013567ffffffffffffffff8111156114045761140361117f565b5b61141087828801611371565b935050604085013567ffffffffffffffff8111156114315761143061117f565b5b61143d87828801611371565b925050606085013567ffffffffffffffff81111561145e5761145d61117f565b5b61146a87828801611371565b91505092959194509250565b60008115159050919050565b61148b81611476565b82525050565b60006020820190506114a66000830184611482565b92915050565b6000819050919050565b6114bf816114ac565b81146114ca57600080fd5b50565b6000813590506114dc816114b6565b92915050565b600080604083850312156114f9576114f861117a565b5b6000611507858286016114cd565b925050602083013567ffffffffffffffff8111156115285761152761117f565b5b611534858286016112bc565b9150509250929050565b6000602082840312156115545761155361117a565b5b6000611562848285016114cd565b91505092915050565b600060808201905081810360008301526115858187611115565b905081810360208301526115998186611115565b905081810360408301526115ad8185611115565b905081810360608301526115c18184611115565b905095945050505050565b6000602082840312156115e2576115e161117a565b5b600082013567ffffffffffffffff811115611600576115ff61117f565b5b61160c848285016112bc565b91505092915050565b61161e816114ac565b82525050565b60006020820190506116396000830184611615565b92915050565b600073ffffffffffffffffffffffffffffffffffffffff82169050919050565b600061166a8261163f565b9050919050565b61167a8161165f565b82525050565b60006020820190506116956000830184611671565b92915050565b600060608201905081810360008301526116b58186611115565b90506116c46020830185611615565b81810360408301526116d68184611115565b9050949350505050565b600060408201905081810360008301526116fa8185611115565b9050818103602083015261170e8184611115565b90509392505050565b7f4e487b7100000000000000000000000000000000000000000000000000000000600052602260045260246000fd5b6000600282049050600182168061175e57607f821691505b60208210810361177157611770611717565b5b50919050565b7f4572726f723a204163636573732044656e6965642e0000000000000000000000600082015250565b60006117ad6015836110c9565b91506117b882611777565b602082019050919050565b600060208201905081810360008301526117dc816117a0565b9050919050565b7f43616e646964617465732061747472696275746573206d75737420686176652060008201527f657175616c206c656e6774680000000000000000000000000000000000000000602082015250565b600061183f602c836110c9565b915061184a826117e3565b604082019050919050565b6000602082019050818103600083015261186e81611832565b9050919050565b7f4e487b7100000000000000000000000000000000000000000000000000000000600052601160045260246000fd5b60006118af826114ac565b91507fffffffffffffffffffffffffffffffffffffffffffffffffffffffffffffffff82036118e1576118e0611875565b5b600182019050919050565b7f4e487b7100000000000000000000000000000000000000000000000000000000600052603260045260246000fd5b60008190508160005260206000209050919050565b60006020601f8301049050919050565b600082821b905092915050565b60006008830261197d7fffffffffffffffffffffffffffffffffffffffffffffffffffffffffffffffff82611940565b6119878683611940565b95508019841693508086168417925050509392505050565b6000819050919050565b60006119c46119bf6119ba846114ac565b61199f565b6114ac565b9050919050565b6000819050919050565b6119de836119a9565b6119f26119ea826119cb565b84845461194d565b825550505050565b600090565b611a076119fa565b611a128184846119d5565b505050565b5b81811015611a3657611a2b6000826119ff565b600181019050611a18565b5050565b601f821115611a7b57611a4c8161191b565b611a5584611930565b81016020851015611a64578190505b611a78611a7085611930565b830182611a17565b50505b505050565b600082821c905092915050565b6000611a9e60001984600802611a80565b1980831691505092915050565b6000611ab78383611a8d565b9150826002028217905092915050565b611ad0826110be565b67ffffffffffffffff811115611ae957611ae8611189565b5b611af38254611746565b611afe828285611a3a565b600060209050601f831160018114611b315760008415611b1f578287015190505b611b298582611aab565b865550611b91565b601f198416611b3f8661191b565b60005b82811015611b6757848901518255600182019150602085019450602081019050611b42565b86831015611b845784890151611b80601f891682611a8d565b8355505b6001600288020188555050505b505050505050565b600081905092915050565b6000611baf826110be565b611bb98185611b99565b9350611bc98185602086016110da565b80840191505092915050565b6000611be18284611ba4565b915081905092915050565b7f4572726f723a20596f752063616e6e6f7420646f75626c6520766f7465000000600082015250565b6000611c22601d836110c9565b9150611c2d82611bec565b602082019050919050565b60006020820190508181036000830152611c5181611c15565b9050919050565b7f456c656374696f6e2068617320456e6465640000000000000000000000000000600082015250565b6000611c8e6012836110c9565b9150611c9982611c58565b602082019050919050565b60006020820190508181036000830152611cbd81611c81565b905091905056fea2646970667358221220b5b72334152df35955ab1c224b21f37c5adc065100ade4c866208bf7ba944b8864736f6c63430008180033a2646970667358221220a827fbfe59680121076ce7b0b8aab0090c4efc6b23f7d75998cc97785d703b7964736f6c63430008180033",
  "linkReferences": {},
  "deployedLinkReferences": {}
}